{
    "contractName": "MyToken",
    "abi": [
        {
            "inputs": [
                {
                    "internalType": "address",
                    "name": "initialOwner",
                    "type": "address"
                }
            ],
            "stateMutability": "nonpayable",
            "type": "constructor"
        },
        {
            "inputs": [
                {
                    "internalType": "address",
                    "name": "sender",
                    "type": "address"
                },
                {
                    "internalType": "uint256",
                    "name": "tokenId",
                    "type": "uint256"
                },
                {
                    "internalType": "address",
                    "name": "owner",
                    "type": "address"
                }
            ],
            "name": "ERC721IncorrectOwner",
            "type": "error"
        },
        {
            "inputs": [
                {
                    "internalType": "address",
                    "name": "operator",
                    "type": "address"
                },
                {
                    "internalType": "uint256",
                    "name": "tokenId",
                    "type": "uint256"
                }
            ],
            "name": "ERC721InsufficientApproval",
            "type": "error"
        },
        {
            "inputs": [
                {
                    "internalType": "address",
                    "name": "approver",
                    "type": "address"
                }
            ],
            "name": "ERC721InvalidApprover",
            "type": "error"
        },
        {
            "inputs": [
                {
                    "internalType": "address",
                    "name": "operator",
                    "type": "address"
                }
            ],
            "name": "ERC721InvalidOperator",
            "type": "error"
        },
        {
            "inputs": [
                {
                    "internalType": "address",
                    "name": "owner",
                    "type": "address"
                }
            ],
            "name": "ERC721InvalidOwner",
            "type": "error"
        },
        {
            "inputs": [
                {
                    "internalType": "address",
                    "name": "receiver",
                    "type": "address"
                }
            ],
            "name": "ERC721InvalidReceiver",
            "type": "error"
        },
        {
            "inputs": [
                {
                    "internalType": "address",
                    "name": "sender",
                    "type": "address"
                }
            ],
            "name": "ERC721InvalidSender",
            "type": "error"
        },
        {
            "inputs": [
                {
                    "internalType": "uint256",
                    "name": "tokenId",
                    "type": "uint256"
                }
            ],
            "name": "ERC721NonexistentToken",
            "type": "error"
        },
        {
            "inputs": [
                {
                    "internalType": "address",
                    "name": "owner",
                    "type": "address"
                }
            ],
            "name": "OwnableInvalidOwner",
            "type": "error"
        },
        {
            "inputs": [
                {
                    "internalType": "address",
                    "name": "account",
                    "type": "address"
                }
            ],
            "name": "OwnableUnauthorizedAccount",
            "type": "error"
        },
        {
            "anonymous": false,
            "inputs": [
                {
                    "indexed": true,
                    "internalType": "address",
                    "name": "owner",
                    "type": "address"
                },
                {
                    "indexed": true,
                    "internalType": "address",
                    "name": "approved",
                    "type": "address"
                },
                {
                    "indexed": true,
                    "internalType": "uint256",
                    "name": "tokenId",
                    "type": "uint256"
                }
            ],
            "name": "Approval",
            "type": "event"
        },
        {
            "anonymous": false,
            "inputs": [
                {
                    "indexed": true,
                    "internalType": "address",
                    "name": "owner",
                    "type": "address"
                },
                {
                    "indexed": true,
                    "internalType": "address",
                    "name": "operator",
                    "type": "address"
                },
                {
                    "indexed": false,
                    "internalType": "bool",
                    "name": "approved",
                    "type": "bool"
                }
            ],
            "name": "ApprovalForAll",
            "type": "event"
        },
        {
            "anonymous": false,
            "inputs": [
                {
                    "indexed": true,
                    "internalType": "address",
                    "name": "previousOwner",
                    "type": "address"
                },
                {
                    "indexed": true,
                    "internalType": "address",
                    "name": "newOwner",
                    "type": "address"
                }
            ],
            "name": "OwnershipTransferred",
            "type": "event"
        },
        {
            "anonymous": false,
            "inputs": [
                {
                    "indexed": true,
                    "internalType": "address",
                    "name": "from",
                    "type": "address"
                },
                {
                    "indexed": true,
                    "internalType": "address",
                    "name": "to",
                    "type": "address"
                },
                {
                    "indexed": true,
                    "internalType": "uint256",
                    "name": "tokenId",
                    "type": "uint256"
                }
            ],
            "name": "Transfer",
            "type": "event"
        },
        {
            "inputs": [
                {
                    "internalType": "address",
                    "name": "to",
                    "type": "address"
                },
                {
                    "internalType": "uint256",
                    "name": "tokenId",
                    "type": "uint256"
                }
            ],
            "name": "approve",
            "outputs": [],
            "stateMutability": "nonpayable",
            "type": "function"
        },
        {
            "inputs": [
                {
                    "internalType": "address",
                    "name": "owner",
                    "type": "address"
                }
            ],
            "name": "balanceOf",
            "outputs": [
                {
                    "internalType": "uint256",
                    "name": "",
                    "type": "uint256"
                }
            ],
            "stateMutability": "view",
            "type": "function"
        },
        {
            "inputs": [
                {
                    "internalType": "uint256",
                    "name": "tokenId",
                    "type": "uint256"
                }
            ],
            "name": "getApproved",
            "outputs": [
                {
                    "internalType": "address",
                    "name": "",
                    "type": "address"
                }
            ],
            "stateMutability": "view",
            "type": "function"
        },
        {
            "inputs": [
                {
                    "internalType": "address",
                    "name": "owner",
                    "type": "address"
                },
                {
                    "internalType": "address",
                    "name": "operator",
                    "type": "address"
                }
            ],
            "name": "isApprovedForAll",
            "outputs": [
                {
                    "internalType": "bool",
                    "name": "",
                    "type": "bool"
                }
            ],
            "stateMutability": "view",
            "type": "function"
        },
        {
            "inputs": [],
            "name": "myTokenURI",
            "outputs": [
                {
                    "internalType": "string",
                    "name": "",
                    "type": "string"
                }
            ],
            "stateMutability": "view",
            "type": "function"
        },
        {
            "inputs": [],
            "name": "name",
            "outputs": [
                {
                    "internalType": "string",
                    "name": "",
                    "type": "string"
                }
            ],
            "stateMutability": "view",
            "type": "function"
        },
        {
            "inputs": [],
            "name": "owner",
            "outputs": [
                {
                    "internalType": "address",
                    "name": "",
                    "type": "address"
                }
            ],
            "stateMutability": "view",
            "type": "function"
        },
        {
            "inputs": [
                {
                    "internalType": "uint256",
                    "name": "tokenId",
                    "type": "uint256"
                }
            ],
            "name": "ownerOf",
            "outputs": [
                {
                    "internalType": "address",
                    "name": "",
                    "type": "address"
                }
            ],
            "stateMutability": "view",
            "type": "function"
        },
        {
            "inputs": [],
            "name": "renounceOwnership",
            "outputs": [],
            "stateMutability": "nonpayable",
            "type": "function"
        },
        {
            "inputs": [
                {
                    "internalType": "address",
                    "name": "to",
                    "type": "address"
                },
                {
                    "internalType": "uint256",
                    "name": "tokenId",
                    "type": "uint256"
                }
            ],
            "name": "safeMint",
            "outputs": [],
            "stateMutability": "nonpayable",
            "type": "function"
        },
        {
            "inputs": [
                {
                    "internalType": "address",
                    "name": "from",
                    "type": "address"
                },
                {
                    "internalType": "address",
                    "name": "to",
                    "type": "address"
                },
                {
                    "internalType": "uint256",
                    "name": "tokenId",
                    "type": "uint256"
                }
            ],
            "name": "safeTransferFrom",
            "outputs": [],
            "stateMutability": "nonpayable",
            "type": "function"
        },
        {
            "inputs": [
                {
                    "internalType": "address",
                    "name": "from",
                    "type": "address"
                },
                {
                    "internalType": "address",
                    "name": "to",
                    "type": "address"
                },
                {
                    "internalType": "uint256",
                    "name": "tokenId",
                    "type": "uint256"
                },
                {
                    "internalType": "bytes",
                    "name": "data",
                    "type": "bytes"
                }
            ],
            "name": "safeTransferFrom",
            "outputs": [],
            "stateMutability": "nonpayable",
            "type": "function"
        },
        {
            "inputs": [
                {
                    "internalType": "address",
                    "name": "operator",
                    "type": "address"
                },
                {
                    "internalType": "bool",
                    "name": "approved",
                    "type": "bool"
                }
            ],
            "name": "setApprovalForAll",
            "outputs": [],
            "stateMutability": "nonpayable",
            "type": "function"
        },
        {
            "inputs": [
                {
                    "internalType": "bytes4",
                    "name": "interfaceId",
                    "type": "bytes4"
                }
            ],
            "name": "supportsInterface",
            "outputs": [
                {
                    "internalType": "bool",
                    "name": "",
                    "type": "bool"
                }
            ],
            "stateMutability": "view",
            "type": "function"
        },
        {
            "inputs": [],
            "name": "symbol",
            "outputs": [
                {
                    "internalType": "string",
                    "name": "",
                    "type": "string"
                }
            ],
            "stateMutability": "view",
            "type": "function"
        },
        {
            "inputs": [
                {
                    "internalType": "uint256",
                    "name": "tokenId",
                    "type": "uint256"
                }
            ],
            "name": "tokenURI",
            "outputs": [
                {
                    "internalType": "string",
                    "name": "",
                    "type": "string"
                }
            ],
            "stateMutability": "view",
            "type": "function"
        },
        {
            "inputs": [
                {
                    "internalType": "address",
                    "name": "from",
                    "type": "address"
                },
                {
                    "internalType": "address",
                    "name": "to",
                    "type": "address"
                },
                {
                    "internalType": "uint256",
                    "name": "tokenId",
                    "type": "uint256"
                }
            ],
            "name": "transferFrom",
            "outputs": [],
            "stateMutability": "nonpayable",
            "type": "function"
        },
        {
            "inputs": [
                {
                    "internalType": "address",
                    "name": "newOwner",
                    "type": "address"
                }
            ],
            "name": "transferOwnership",
            "outputs": [],
            "stateMutability": "nonpayable",
            "type": "function"
        }
    ],
    "bytecode": "61010060405260436080818152906200128560a039600790620000239082620001e4565b5034801562000030575f80fd5b50604051620012c8380380620012c88339810160408190526200005391620002ac565b806040518060400160405280600781526020016626bcaa37b5b2b760c91b815250604051806040016040528060038152602001624d544b60e81b815250815f9081620000a09190620001e4565b506001620000af8282620001e4565b5050506001600160a01b038116620000e057604051631e4fbdf760e01b81525f600482015260240160405180910390fd5b620000eb81620000f3565b5050620002db565b600680546001600160a01b038381166001600160a01b0319831681179093556040519116919082907f8be0079c531659141344cd1fd0a4f28419497f9722a3daafe3b4186f6b6457e0905f90a35050565b634e487b7160e01b5f52604160045260245ffd5b600181811c908216806200016d57607f821691505b6020821081036200018c57634e487b7160e01b5f52602260045260245ffd5b50919050565b601f821115620001df575f81815260208120601f850160051c81016020861015620001ba5750805b601f850160051c820191505b81811015620001db57828155600101620001c6565b5050505b505050565b81516001600160401b0381111562000200576200020062000144565b620002188162000211845462000158565b8462000192565b602080601f8311600181146200024e575f8415620002365750858301515b5f19600386901b1c1916600185901b178555620001db565b5f85815260208120601f198616915b828110156200027e578886015182559484019460019091019084016200025d565b50858210156200029c57878501515f19600388901b60f8161c191681555b5050505050600190811b01905550565b5f60208284031215620002bd575f80fd5b81516001600160a01b0381168114620002d4575f80fd5b9392505050565b610f9c80620002e95f395ff3fe608060405234801561000f575f80fd5b5060043610610111575f3560e01c80638da5cb5b1161009e578063b88d4fde1161006e578063b88d4fde14610233578063beb29c4d14610246578063c87b56dd1461024e578063e985e9c514610261578063f2fde38b14610274575f80fd5b80638da5cb5b146101f457806395d89b4114610205578063a14481941461020d578063a22cb46514610220575f80fd5b806323b872dd116100e457806323b872dd1461019257806342842e0e146101a55780636352211e146101b857806370a08231146101cb578063715018a6146101ec575f80fd5b806301ffc9a71461011557806306fdde031461013d578063081812fc14610152578063095ea7b31461017d575b5f80fd5b610128610123366004610c61565b610287565b60405190151581526020015b60405180910390f35b6101456102d8565b6040516101349190610cc6565b610165610160366004610cd8565b610367565b6040516001600160a01b039091168152602001610134565b61019061018b366004610d0a565b61038e565b005b6101906101a0366004610d32565b61039d565b6101906101b3366004610d32565b61042b565b6101656101c6366004610cd8565b61044a565b6101de6101d9366004610d6b565b610454565b604051908152602001610134565b610190610499565b6006546001600160a01b0316610165565b6101456104ac565b61019061021b366004610d0a565b6104bb565b61019061022e366004610d84565b6104cd565b610190610241366004610dd1565b6104d8565b6101456104ef565b61014561025c366004610cd8565b61057b565b61012861026f366004610ea6565b61060d565b610190610282366004610d6b565b61063a565b5f6001600160e01b031982166380ac58cd60e01b14806102b757506001600160e01b03198216635b5e139f60e01b145b806102d257506301ffc9a760e01b6001600160e01b03198316145b92915050565b60605f80546102e690610ed7565b80601f016020809104026020016040519081016040528092919081815260200182805461031290610ed7565b801561035d5780601f106103345761010080835404028352916020019161035d565b820191905f5260205f20905b81548152906001019060200180831161034057829003601f168201915b5050505050905090565b5f61037182610677565b505f828152600460205260409020546001600160a01b03166102d2565b6103998282336106af565b5050565b6001600160a01b0382166103cb57604051633250574960e11b81525f60048201526024015b60405180910390fd5b5f6103d78383336106bc565b9050836001600160a01b0316816001600160a01b031614610425576040516364283d7b60e01b81526001600160a01b03808616600483015260248201849052821660448201526064016103c2565b50505050565b61044583838360405180602001604052805f8152506104d8565b505050565b5f6102d282610677565b5f6001600160a01b03821661047e576040516322718ad960e21b81525f60048201526024016103c2565b506001600160a01b03165f9081526003602052604090205490565b6104a16107ae565b6104aa5f6107db565b565b6060600180546102e690610ed7565b6104c36107ae565b610399828261082c565b610399338383610845565b6104e384848461039d565b610425848484846108e3565b600780546104fc90610ed7565b80601f016020809104026020016040519081016040528092919081815260200182805461052890610ed7565b80156105735780601f1061054a57610100808354040283529160200191610573565b820191905f5260205f20905b81548152906001019060200180831161055657829003601f168201915b505050505081565b60606007805461058a90610ed7565b80601f01602080910402602001604051908101604052809291908181526020018280546105b690610ed7565b80156106015780601f106105d857610100808354040283529160200191610601565b820191905f5260205f20905b8154815290600101906020018083116105e457829003601f168201915b50505050509050919050565b6001600160a01b039182165f90815260056020908152604080832093909416825291909152205460ff1690565b6106426107ae565b6001600160a01b03811661066b57604051631e4fbdf760e01b81525f60048201526024016103c2565b610674816107db565b50565b5f818152600260205260408120546001600160a01b0316806102d257604051637e27328960e01b8152600481018490526024016103c2565b6104458383836001610a09565b5f828152600260205260408120546001600160a01b03908116908316156106e8576106e8818486610b0d565b6001600160a01b03811615610722576107035f855f80610a09565b6001600160a01b0381165f90815260036020526040902080545f190190555b6001600160a01b03851615610750576001600160a01b0385165f908152600360205260409020805460010190555b5f8481526002602052604080822080546001600160a01b0319166001600160a01b0389811691821790925591518793918516917fddf252ad1be2c89b69c2b068fc378daa952ba7f163c4a11628f55a4df523b3ef91a4949350505050565b6006546001600160a01b031633146104aa5760405163118cdaa760e01b81523360048201526024016103c2565b600680546001600160a01b038381166001600160a01b0319831681179093556040519116919082907f8be0079c531659141344cd1fd0a4f28419497f9722a3daafe3b4186f6b6457e0905f90a35050565b610399828260405180602001604052805f815250610b71565b6001600160a01b03821661087757604051630b61174360e31b81526001600160a01b03831660048201526024016103c2565b6001600160a01b038381165f81815260056020908152604080832094871680845294825291829020805460ff191686151590811790915591519182527f17307eab39ab6107e8899845ad3d59bd9653f200f220920489ca2b5937696c31910160405180910390a3505050565b6001600160a01b0383163b1561042557604051630a85bd0160e11b81526001600160a01b0384169063150b7a0290610925903390889087908790600401610f0f565b6020604051808303815f875af192505050801561095f575060408051601f3d908101601f1916820190925261095c91810190610f4b565b60015b6109c6573d80801561098c576040519150601f19603f3d011682016040523d82523d5f602084013e610991565b606091505b5080515f036109be57604051633250574960e11b81526001600160a01b03851660048201526024016103c2565b805181602001fd5b6001600160e01b03198116630a85bd0160e11b14610a0257604051633250574960e11b81526001600160a01b03851660048201526024016103c2565b5050505050565b8080610a1d57506001600160a01b03821615155b15610ade575f610a2c84610677565b90506001600160a01b03831615801590610a585750826001600160a01b0316816001600160a01b031614155b8015610a6b5750610a69818461060d565b155b15610a945760405163a9fbf51f60e01b81526001600160a01b03841660048201526024016103c2565b8115610adc5783856001600160a01b0316826001600160a01b03167f8c5be1e5ebec7d5bd14f71427d1e84f3dd0314c0f7b2291e5b200ac8c7c3b92560405160405180910390a45b505b50505f90815260046020526040902080546001600160a01b0319166001600160a01b0392909216919091179055565b610b18838383610b87565b610445576001600160a01b038316610b4657604051637e27328960e01b8152600481018290526024016103c2565b60405163177e802f60e01b81526001600160a01b0383166004820152602481018290526044016103c2565b610b7b8383610beb565b6104455f8484846108e3565b5f6001600160a01b03831615801590610be35750826001600160a01b0316846001600160a01b03161480610bc05750610bc0848461060d565b80610be357505f828152600460205260409020546001600160a01b038481169116145b949350505050565b6001600160a01b038216610c1457604051633250574960e11b81525f60048201526024016103c2565b5f610c2083835f6106bc565b90506001600160a01b03811615610445576040516339e3563760e11b81525f60048201526024016103c2565b6001600160e01b031981168114610674575f80fd5b5f60208284031215610c71575f80fd5b8135610c7c81610c4c565b9392505050565b5f81518084525f5b81811015610ca757602081850181015186830182015201610c8b565b505f602082860101526020601f19601f83011685010191505092915050565b602081525f610c7c6020830184610c83565b5f60208284031215610ce8575f80fd5b5035919050565b80356001600160a01b0381168114610d05575f80fd5b919050565b5f8060408385031215610d1b575f80fd5b610d2483610cef565b946020939093013593505050565b5f805f60608486031215610d44575f80fd5b610d4d84610cef565b9250610d5b60208501610cef565b9150604084013590509250925092565b5f60208284031215610d7b575f80fd5b610c7c82610cef565b5f8060408385031215610d95575f80fd5b610d9e83610cef565b915060208301358015158114610db2575f80fd5b809150509250929050565b634e487b7160e01b5f52604160045260245ffd5b5f805f8060808587031215610de4575f80fd5b610ded85610cef565b9350610dfb60208601610cef565b925060408501359150606085013567ffffffffffffffff80821115610e1e575f80fd5b818701915087601f830112610e31575f80fd5b813581811115610e4357610e43610dbd565b604051601f8201601f19908116603f01168101908382118183101715610e6b57610e6b610dbd565b816040528281528a6020848701011115610e83575f80fd5b826020860160208301375f60208483010152809550505050505092959194509250565b5f8060408385031215610eb7575f80fd5b610ec083610cef565b9150610ece60208401610cef565b90509250929050565b600181811c90821680610eeb57607f821691505b602082108103610f0957634e487b7160e01b5f52602260045260245ffd5b50919050565b6001600160a01b03858116825284166020820152604081018390526080606082018190525f90610f4190830184610c83565b9695505050505050565b5f60208284031215610f5b575f80fd5b8151610c7c81610c4c56fea26469706673582212207f10122a90b760e30df0813f1b910d58af257986f94d3ce521c20d1c2fb9dbd064736f6c6343000814003368747470733a2f2f697066732e696f2f697066732f516d50594b65796f6534635453626450344a37586b563758754d3936596b674e7343614d7a424c484772704e6457",
    "sourcePath": "/Users/lexervincent/Desktop/dev/hello-zksync-quickstart/contracts/nft.sol",
    "compiler": {
        "name": "solc",
        "version": "0.8.20+commit.a1b79de6"
    },
    "functionHashes": {
        "approve(address,uint256)": "095ea7b3",
        "balanceOf(address)": "70a08231",
        "getApproved(uint256)": "081812fc",
        "isApprovedForAll(address,address)": "e985e9c5",
        "myTokenURI()": "beb29c4d",
        "name()": "06fdde03",
        "owner()": "8da5cb5b",
        "ownerOf(uint256)": "6352211e",
        "renounceOwnership()": "715018a6",
        "safeMint(address,uint256)": "a1448194",
        "safeTransferFrom(address,address,uint256)": "42842e0e",
        "safeTransferFrom(address,address,uint256,bytes)": "b88d4fde",
        "setApprovalForAll(address,bool)": "a22cb465",
        "supportsInterface(bytes4)": "01ffc9a7",
        "symbol()": "95d89b41",
        "tokenURI(uint256)": "c87b56dd",
        "transferFrom(address,address,uint256)": "23b872dd",
        "transferOwnership(address)": "f2fde38b"
    },
    "gasEstimates": {
        "creation": {
            "codeDepositCost": "799200",
            "executionCost": "infinite",
            "totalCost": "infinite"
        },
        "external": {
            "approve(address,uint256)": "31531",
            "balanceOf(address)": "2674",
            "getApproved(uint256)": "infinite",
            "isApprovedForAll(address,address)": "infinite",
            "myTokenURI()": "infinite",
            "name()": "infinite",
            "owner()": "2353",
            "ownerOf(uint256)": "infinite",
            "renounceOwnership()": "infinite",
            "safeMint(address,uint256)": "infinite",
            "safeTransferFrom(address,address,uint256)": "infinite",
            "safeTransferFrom(address,address,uint256,bytes)": "infinite",
            "setApprovalForAll(address,bool)": "26745",
            "supportsInterface(bytes4)": "531",
            "symbol()": "infinite",
            "tokenURI(uint256)": "infinite",
            "transferFrom(address,address,uint256)": "infinite",
            "transferOwnership(address)": "28443"
        }
    }
}